{
  "_format": "hh-sol-artifact-1",
  "contractName": "RealEstate",
  "sourceName": "contracts/RealEstate.sol",
  "abi": [
    {
      "inputs": [],
      "stateMutability": "nonpayable",
      "type": "constructor"
    },
    {
      "anonymous": false,
      "inputs": [
        {
          "indexed": true,
          "internalType": "address",
          "name": "owner",
          "type": "address"
        },
        {
          "indexed": true,
          "internalType": "address",
          "name": "approved",
          "type": "address"
        },
        {
          "indexed": true,
          "internalType": "uint256",
          "name": "tokenId",
          "type": "uint256"
        }
      ],
      "name": "Approval",
      "type": "event"
    },
    {
      "anonymous": false,
      "inputs": [
        {
          "indexed": true,
          "internalType": "address",
          "name": "owner",
          "type": "address"
        },
        {
          "indexed": true,
          "internalType": "address",
          "name": "operator",
          "type": "address"
        },
        {
          "indexed": false,
          "internalType": "bool",
          "name": "approved",
          "type": "bool"
        }
      ],
      "name": "ApprovalForAll",
      "type": "event"
    },
    {
      "anonymous": false,
      "inputs": [
        {
          "indexed": true,
          "internalType": "address",
          "name": "from",
          "type": "address"
        },
        {
          "indexed": true,
          "internalType": "address",
          "name": "to",
          "type": "address"
        },
        {
          "indexed": true,
          "internalType": "uint256",
          "name": "tokenId",
          "type": "uint256"
        }
      ],
      "name": "Transfer",
      "type": "event"
    },
    {
      "inputs": [
        {
          "internalType": "address",
          "name": "to",
          "type": "address"
        },
        {
          "internalType": "uint256",
          "name": "tokenId",
          "type": "uint256"
        }
      ],
      "name": "approve",
      "outputs": [],
      "stateMutability": "nonpayable",
      "type": "function"
    },
    {
      "inputs": [
        {
          "internalType": "address",
          "name": "owner",
          "type": "address"
        }
      ],
      "name": "balanceOf",
      "outputs": [
        {
          "internalType": "uint256",
          "name": "",
          "type": "uint256"
        }
      ],
      "stateMutability": "view",
      "type": "function"
    },
    {
      "inputs": [
        {
          "internalType": "uint256",
          "name": "tokenId",
          "type": "uint256"
        }
      ],
      "name": "getApproved",
      "outputs": [
        {
          "internalType": "address",
          "name": "",
          "type": "address"
        }
      ],
      "stateMutability": "view",
      "type": "function"
    },
    {
      "inputs": [
        {
          "internalType": "address",
          "name": "owner",
          "type": "address"
        },
        {
          "internalType": "address",
          "name": "operator",
          "type": "address"
        }
      ],
      "name": "isApprovedForAll",
      "outputs": [
        {
          "internalType": "bool",
          "name": "",
          "type": "bool"
        }
      ],
      "stateMutability": "view",
      "type": "function"
    },
    {
      "inputs": [
        {
          "internalType": "string",
          "name": "tokenURI",
          "type": "string"
        }
      ],
      "name": "mint",
      "outputs": [
        {
          "internalType": "uint256",
          "name": "",
          "type": "uint256"
        }
      ],
      "stateMutability": "nonpayable",
      "type": "function"
    },
    {
      "inputs": [],
      "name": "name",
      "outputs": [
        {
          "internalType": "string",
          "name": "",
          "type": "string"
        }
      ],
      "stateMutability": "view",
      "type": "function"
    },
    {
      "inputs": [
        {
          "internalType": "uint256",
          "name": "tokenId",
          "type": "uint256"
        }
      ],
      "name": "ownerOf",
      "outputs": [
        {
          "internalType": "address",
          "name": "",
          "type": "address"
        }
      ],
      "stateMutability": "view",
      "type": "function"
    },
    {
      "inputs": [
        {
          "internalType": "address",
          "name": "from",
          "type": "address"
        },
        {
          "internalType": "address",
          "name": "to",
          "type": "address"
        },
        {
          "internalType": "uint256",
          "name": "tokenId",
          "type": "uint256"
        }
      ],
      "name": "safeTransferFrom",
      "outputs": [],
      "stateMutability": "nonpayable",
      "type": "function"
    },
    {
      "inputs": [
        {
          "internalType": "address",
          "name": "from",
          "type": "address"
        },
        {
          "internalType": "address",
          "name": "to",
          "type": "address"
        },
        {
          "internalType": "uint256",
          "name": "tokenId",
          "type": "uint256"
        },
        {
          "internalType": "bytes",
          "name": "data",
          "type": "bytes"
        }
      ],
      "name": "safeTransferFrom",
      "outputs": [],
      "stateMutability": "nonpayable",
      "type": "function"
    },
    {
      "inputs": [
        {
          "internalType": "address",
          "name": "operator",
          "type": "address"
        },
        {
          "internalType": "bool",
          "name": "approved",
          "type": "bool"
        }
      ],
      "name": "setApprovalForAll",
      "outputs": [],
      "stateMutability": "nonpayable",
      "type": "function"
    },
    {
      "inputs": [
        {
          "internalType": "bytes4",
          "name": "interfaceId",
          "type": "bytes4"
        }
      ],
      "name": "supportsInterface",
      "outputs": [
        {
          "internalType": "bool",
          "name": "",
          "type": "bool"
        }
      ],
      "stateMutability": "view",
      "type": "function"
    },
    {
      "inputs": [],
      "name": "symbol",
      "outputs": [
        {
          "internalType": "string",
          "name": "",
          "type": "string"
        }
      ],
      "stateMutability": "view",
      "type": "function"
    },
    {
      "inputs": [
        {
          "internalType": "uint256",
          "name": "tokenId",
          "type": "uint256"
        }
      ],
      "name": "tokenURI",
      "outputs": [
        {
          "internalType": "string",
          "name": "",
          "type": "string"
        }
      ],
      "stateMutability": "view",
      "type": "function"
    },
    {
      "inputs": [],
      "name": "total_supply",
      "outputs": [
        {
          "internalType": "uint256",
          "name": "",
          "type": "uint256"
        }
      ],
      "stateMutability": "view",
      "type": "function"
    },
    {
      "inputs": [
        {
          "internalType": "address",
          "name": "from",
          "type": "address"
        },
        {
          "internalType": "address",
          "name": "to",
          "type": "address"
        },
        {
          "internalType": "uint256",
          "name": "tokenId",
          "type": "uint256"
        }
      ],
      "name": "transferFrom",
      "outputs": [],
      "stateMutability": "nonpayable",
      "type": "function"
    }
  ],
  "bytecode": "0x60806040523480156200001157600080fd5b506040518060400160405280600a81526020017f5265616c457374617465000000000000000000000000000000000000000000008152506040518060400160405280600481526020017f5245414c0000000000000000000000000000000000000000000000000000000081525081600090816200008f919062000324565b508060019081620000a1919062000324565b5050506200040b565b600081519050919050565b7f4e487b7100000000000000000000000000000000000000000000000000000000600052604160045260246000fd5b7f4e487b7100000000000000000000000000000000000000000000000000000000600052602260045260246000fd5b600060028204905060018216806200012c57607f821691505b602082108103620001425762000141620000e4565b5b50919050565b60008190508160005260206000209050919050565b60006020601f8301049050919050565b600082821b905092915050565b600060088302620001ac7fffffffffffffffffffffffffffffffffffffffffffffffffffffffffffffffff826200016d565b620001b886836200016d565b95508019841693508086168417925050509392505050565b6000819050919050565b6000819050919050565b600062000205620001ff620001f984620001d0565b620001da565b620001d0565b9050919050565b6000819050919050565b6200022183620001e4565b6200023962000230826200020c565b8484546200017a565b825550505050565b600090565b6200025062000241565b6200025d81848462000216565b505050565b5b8181101562000285576200027960008262000246565b60018101905062000263565b5050565b601f821115620002d4576200029e8162000148565b620002a9846200015d565b81016020851015620002b9578190505b620002d1620002c8856200015d565b83018262000262565b50505b505050565b600082821c905092915050565b6000620002f960001984600802620002d9565b1980831691505092915050565b6000620003148383620002e6565b9150826002028217905092915050565b6200032f82620000aa565b67ffffffffffffffff8111156200034b576200034a620000b5565b5b62000357825462000113565b6200036482828562000289565b600060209050601f8311600181146200039c576000841562000387578287015190505b62000393858262000306565b86555062000403565b601f198416620003ac8662000148565b60005b82811015620003d657848901518255600182019150602085019450602081019050620003af565b86831015620003f65784890151620003f2601f891682620002e6565b8355505b6001600288020188555050505b505050505050565b612a34806200041b6000396000f3fe608060405234801561001057600080fd5b50600436106100f55760003560e01c80636352211e11610097578063b88d4fde11610066578063b88d4fde14610284578063c87b56dd146102a0578063d85d3d27146102d0578063e985e9c514610300576100f5565b80636352211e146101ea57806370a082311461021a57806395d89b411461024a578063a22cb46514610268576100f5565b8063095ea7b3116100d3578063095ea7b31461017857806323b872dd146101945780633940e9ee146101b057806342842e0e146101ce576100f5565b806301ffc9a7146100fa57806306fdde031461012a578063081812fc14610148575b600080fd5b610114600480360381019061010f91906117c6565b610330565b604051610121919061180e565b60405180910390f35b610132610412565b60405161013f91906118b9565b60405180910390f35b610162600480360381019061015d9190611911565b6104a4565b60405161016f919061197f565b60405180910390f35b610192600480360381019061018d91906119c6565b6104ea565b005b6101ae60048036038101906101a99190611a06565b610601565b005b6101b8610661565b6040516101c59190611a68565b60405180910390f35b6101e860048036038101906101e39190611a06565b61066b565b005b61020460048036038101906101ff9190611911565b61068b565b604051610211919061197f565b60405180910390f35b610234600480360381019061022f9190611a83565b61073c565b6040516102419190611a68565b60405180910390f35b6102526107f3565b60405161025f91906118b9565b60405180910390f35b610282600480360381019061027d9190611adc565b610885565b005b61029e60048036038101906102999190611c51565b61089b565b005b6102ba60048036038101906102b59190611911565b6108fd565b6040516102c791906118b9565b60405180910390f35b6102ea60048036038101906102e59190611d75565b610a0f565b6040516102f79190611a68565b60405180910390f35b61031a60048036038101906103159190611dbe565b610a48565b604051610327919061180e565b60405180910390f35b60007f80ac58cd000000000000000000000000000000000000000000000000000000007bffffffffffffffffffffffffffffffffffffffffffffffffffffffff1916827bffffffffffffffffffffffffffffffffffffffffffffffffffffffff191614806103fb57507f5b5e139f000000000000000000000000000000000000000000000000000000007bffffffffffffffffffffffffffffffffffffffffffffffffffffffff1916827bffffffffffffffffffffffffffffffffffffffffffffffffffffffff1916145b8061040b575061040a82610adc565b5b9050919050565b60606000805461042190611e2d565b80601f016020809104026020016040519081016040528092919081815260200182805461044d90611e2d565b801561049a5780601f1061046f5761010080835404028352916020019161049a565b820191906000526020600020905b81548152906001019060200180831161047d57829003601f168201915b5050505050905090565b60006104af82610b46565b6004600083815260200190815260200160002060009054906101000a900473ffffffffffffffffffffffffffffffffffffffff169050919050565b60006104f58261068b565b90508073ffffffffffffffffffffffffffffffffffffffff168373ffffffffffffffffffffffffffffffffffffffff1603610565576040517f08c379a000000000000000000000000000000000000000000000000000000000815260040161055c90611ed0565b60405180910390fd5b8073ffffffffffffffffffffffffffffffffffffffff16610584610b91565b73ffffffffffffffffffffffffffffffffffffffff1614806105b357506105b2816105ad610b91565b610a48565b5b6105f2576040517f08c379a00000000000000000000000000000000000000000000000000000000081526004016105e990611f62565b60405180910390fd5b6105fc8383610b99565b505050565b61061261060c610b91565b82610c52565b610651576040517f08c379a000000000000000000000000000000000000000000000000000000000815260040161064890611ff4565b60405180910390fd5b61065c838383610ce7565b505050565b6000600754905090565b6106868383836040518060200160405280600081525061089b565b505050565b6000806002600084815260200190815260200160002060009054906101000a900473ffffffffffffffffffffffffffffffffffffffff169050600073ffffffffffffffffffffffffffffffffffffffff168173ffffffffffffffffffffffffffffffffffffffff1603610733576040517f08c379a000000000000000000000000000000000000000000000000000000000815260040161072a90612060565b60405180910390fd5b80915050919050565b60008073ffffffffffffffffffffffffffffffffffffffff168273ffffffffffffffffffffffffffffffffffffffff16036107ac576040517f08c379a00000000000000000000000000000000000000000000000000000000081526004016107a3906120f2565b60405180910390fd5b600360008373ffffffffffffffffffffffffffffffffffffffff1673ffffffffffffffffffffffffffffffffffffffff168152602001908152602001600020549050919050565b60606001805461080290611e2d565b80601f016020809104026020016040519081016040528092919081815260200182805461082e90611e2d565b801561087b5780601f106108505761010080835404028352916020019161087b565b820191906000526020600020905b81548152906001019060200180831161085e57829003601f168201915b5050505050905090565b610897610890610b91565b8383610f4d565b5050565b6108ac6108a6610b91565b83610c52565b6108eb576040517f08c379a00000000000000000000000000000000000000000000000000000000081526004016108e290611ff4565b60405180910390fd5b6108f7848484846110b9565b50505050565b606061090882610b46565b600060066000848152602001908152602001600020805461092890611e2d565b80601f016020809104026020016040519081016040528092919081815260200182805461095490611e2d565b80156109a15780601f10610976576101008083540402835291602001916109a1565b820191906000526020600020905b81548152906001019060200180831161098457829003601f168201915b5050505050905060006109b2611115565b905060008151036109c7578192505050610a0a565b6000825111156109fc5780826040516020016109e492919061214e565b60405160208183030381529060405292505050610a0a565b610a058461112c565b925050505b919050565b60008060076000815480929190610a25906121a1565b919050559050610a353382611194565b610a3f818461136d565b80915050919050565b6000600560008473ffffffffffffffffffffffffffffffffffffffff1673ffffffffffffffffffffffffffffffffffffffff16815260200190815260200160002060008373ffffffffffffffffffffffffffffffffffffffff1673ffffffffffffffffffffffffffffffffffffffff16815260200190815260200160002060009054906101000a900460ff16905092915050565b60007f01ffc9a7000000000000000000000000000000000000000000000000000000007bffffffffffffffffffffffffffffffffffffffffffffffffffffffff1916827bffffffffffffffffffffffffffffffffffffffffffffffffffffffff1916149050919050565b610b4f816113da565b610b8e576040517f08c379a0000000000000000000000000000000000000000000000000000000008152600401610b8590612060565b60405180910390fd5b50565b600033905090565b816004600083815260200190815260200160002060006101000a81548173ffffffffffffffffffffffffffffffffffffffff021916908373ffffffffffffffffffffffffffffffffffffffff160217905550808273ffffffffffffffffffffffffffffffffffffffff16610c0c8361068b565b73ffffffffffffffffffffffffffffffffffffffff167f8c5be1e5ebec7d5bd14f71427d1e84f3dd0314c0f7b2291e5b200ac8c7c3b92560405160405180910390a45050565b600080610c5e8361068b565b90508073ffffffffffffffffffffffffffffffffffffffff168473ffffffffffffffffffffffffffffffffffffffff161480610ca05750610c9f8185610a48565b5b80610cde57508373ffffffffffffffffffffffffffffffffffffffff16610cc6846104a4565b73ffffffffffffffffffffffffffffffffffffffff16145b91505092915050565b8273ffffffffffffffffffffffffffffffffffffffff16610d078261068b565b73ffffffffffffffffffffffffffffffffffffffff1614610d5d576040517f08c379a0000000000000000000000000000000000000000000000000000000008152600401610d549061225b565b60405180910390fd5b600073ffffffffffffffffffffffffffffffffffffffff168273ffffffffffffffffffffffffffffffffffffffff1603610dcc576040517f08c379a0000000000000000000000000000000000000000000000000000000008152600401610dc3906122ed565b60405180910390fd5b610dd7838383611446565b610de2600082610b99565b6001600360008573ffffffffffffffffffffffffffffffffffffffff1673ffffffffffffffffffffffffffffffffffffffff1681526020019081526020016000206000828254610e32919061230d565b925050819055506001600360008473ffffffffffffffffffffffffffffffffffffffff1673ffffffffffffffffffffffffffffffffffffffff1681526020019081526020016000206000828254610e899190612341565b92505081905550816002600083815260200190815260200160002060006101000a81548173ffffffffffffffffffffffffffffffffffffffff021916908373ffffffffffffffffffffffffffffffffffffffff160217905550808273ffffffffffffffffffffffffffffffffffffffff168473ffffffffffffffffffffffffffffffffffffffff167fddf252ad1be2c89b69c2b068fc378daa952ba7f163c4a11628f55a4df523b3ef60405160405180910390a4610f4883838361144b565b505050565b8173ffffffffffffffffffffffffffffffffffffffff168373ffffffffffffffffffffffffffffffffffffffff1603610fbb576040517f08c379a0000000000000000000000000000000000000000000000000000000008152600401610fb2906123c1565b60405180910390fd5b80600560008573ffffffffffffffffffffffffffffffffffffffff1673ffffffffffffffffffffffffffffffffffffffff16815260200190815260200160002060008473ffffffffffffffffffffffffffffffffffffffff1673ffffffffffffffffffffffffffffffffffffffff16815260200190815260200160002060006101000a81548160ff0219169083151502179055508173ffffffffffffffffffffffffffffffffffffffff168373ffffffffffffffffffffffffffffffffffffffff167f17307eab39ab6107e8899845ad3d59bd9653f200f220920489ca2b5937696c31836040516110ac919061180e565b60405180910390a3505050565b6110c4848484610ce7565b6110d084848484611450565b61110f576040517f08c379a000000000000000000000000000000000000000000000000000000000815260040161110690612453565b60405180910390fd5b50505050565b606060405180602001604052806000815250905090565b606061113782610b46565b6000611141611115565b90506000815111611161576040518060200160405280600081525061118c565b8061116b846115d7565b60405160200161117c92919061214e565b6040516020818303038152906040525b915050919050565b600073ffffffffffffffffffffffffffffffffffffffff168273ffffffffffffffffffffffffffffffffffffffff1603611203576040517f08c379a00000000000000000000000000000000000000000000000000000000081526004016111fa906124bf565b60405180910390fd5b61120c816113da565b1561124c576040517f08c379a00000000000000000000000000000000000000000000000000000000081526004016112439061252b565b60405180910390fd5b61125860008383611446565b6001600360008473ffffffffffffffffffffffffffffffffffffffff1673ffffffffffffffffffffffffffffffffffffffff16815260200190815260200160002060008282546112a89190612341565b92505081905550816002600083815260200190815260200160002060006101000a81548173ffffffffffffffffffffffffffffffffffffffff021916908373ffffffffffffffffffffffffffffffffffffffff160217905550808273ffffffffffffffffffffffffffffffffffffffff16600073ffffffffffffffffffffffffffffffffffffffff167fddf252ad1be2c89b69c2b068fc378daa952ba7f163c4a11628f55a4df523b3ef60405160405180910390a46113696000838361144b565b5050565b611376826113da565b6113b5576040517f08c379a00000000000000000000000000000000000000000000000000000000081526004016113ac906125bd565b60405180910390fd5b806006600084815260200190815260200160002090816113d59190612789565b505050565b60008073ffffffffffffffffffffffffffffffffffffffff166002600084815260200190815260200160002060009054906101000a900473ffffffffffffffffffffffffffffffffffffffff1673ffffffffffffffffffffffffffffffffffffffff1614159050919050565b505050565b505050565b60006114718473ffffffffffffffffffffffffffffffffffffffff16611737565b156115ca578373ffffffffffffffffffffffffffffffffffffffff1663150b7a0261149a610b91565b8786866040518563ffffffff1660e01b81526004016114bc94939291906128b0565b6020604051808303816000875af19250505080156114f857506040513d601f19601f820116820180604052508101906114f59190612911565b60015b61157a573d8060008114611528576040519150601f19603f3d011682016040523d82523d6000602084013e61152d565b606091505b506000815103611572576040517f08c379a000000000000000000000000000000000000000000000000000000000815260040161156990612453565b60405180910390fd5b805181602001fd5b63150b7a0260e01b7bffffffffffffffffffffffffffffffffffffffffffffffffffffffff1916817bffffffffffffffffffffffffffffffffffffffffffffffffffffffff1916149150506115cf565b600190505b949350505050565b60606000820361161e576040518060400160405280600181526020017f30000000000000000000000000000000000000000000000000000000000000008152509050611732565b600082905060005b60008214611650578080611639906121a1565b915050600a82611649919061296d565b9150611626565b60008167ffffffffffffffff81111561166c5761166b611b26565b5b6040519080825280601f01601f19166020018201604052801561169e5781602001600182028036833780820191505090505b5090505b6000851461172b576001826116b7919061230d565b9150600a856116c6919061299e565b60306116d29190612341565b60f81b8183815181106116e8576116e76129cf565b5b60200101907effffffffffffffffffffffffffffffffffffffffffffffffffffffffffffff1916908160001a905350600a85611724919061296d565b94506116a2565b8093505050505b919050565b6000808273ffffffffffffffffffffffffffffffffffffffff163b119050919050565b6000604051905090565b600080fd5b600080fd5b60007fffffffff0000000000000000000000000000000000000000000000000000000082169050919050565b6117a38161176e565b81146117ae57600080fd5b50565b6000813590506117c08161179a565b92915050565b6000602082840312156117dc576117db611764565b5b60006117ea848285016117b1565b91505092915050565b60008115159050919050565b611808816117f3565b82525050565b600060208201905061182360008301846117ff565b92915050565b600081519050919050565b600082825260208201905092915050565b60005b83811015611863578082015181840152602081019050611848565b60008484015250505050565b6000601f19601f8301169050919050565b600061188b82611829565b6118958185611834565b93506118a5818560208601611845565b6118ae8161186f565b840191505092915050565b600060208201905081810360008301526118d38184611880565b905092915050565b6000819050919050565b6118ee816118db565b81146118f957600080fd5b50565b60008135905061190b816118e5565b92915050565b60006020828403121561192757611926611764565b5b6000611935848285016118fc565b91505092915050565b600073ffffffffffffffffffffffffffffffffffffffff82169050919050565b60006119698261193e565b9050919050565b6119798161195e565b82525050565b60006020820190506119946000830184611970565b92915050565b6119a38161195e565b81146119ae57600080fd5b50565b6000813590506119c08161199a565b92915050565b600080604083850312156119dd576119dc611764565b5b60006119eb858286016119b1565b92505060206119fc858286016118fc565b9150509250929050565b600080600060608486031215611a1f57611a1e611764565b5b6000611a2d868287016119b1565b9350506020611a3e868287016119b1565b9250506040611a4f868287016118fc565b9150509250925092565b611a62816118db565b82525050565b6000602082019050611a7d6000830184611a59565b92915050565b600060208284031215611a9957611a98611764565b5b6000611aa7848285016119b1565b91505092915050565b611ab9816117f3565b8114611ac457600080fd5b50565b600081359050611ad681611ab0565b92915050565b60008060408385031215611af357611af2611764565b5b6000611b01858286016119b1565b9250506020611b1285828601611ac7565b9150509250929050565b600080fd5b600080fd5b7f4e487b7100000000000000000000000000000000000000000000000000000000600052604160045260246000fd5b611b5e8261186f565b810181811067ffffffffffffffff82111715611b7d57611b7c611b26565b5b80604052505050565b6000611b9061175a565b9050611b9c8282611b55565b919050565b600067ffffffffffffffff821115611bbc57611bbb611b26565b5b611bc58261186f565b9050602081019050919050565b82818337600083830152505050565b6000611bf4611bef84611ba1565b611b86565b905082815260208101848484011115611c1057611c0f611b21565b5b611c1b848285611bd2565b509392505050565b600082601f830112611c3857611c37611b1c565b5b8135611c48848260208601611be1565b91505092915050565b60008060008060808587031215611c6b57611c6a611764565b5b6000611c79878288016119b1565b9450506020611c8a878288016119b1565b9350506040611c9b878288016118fc565b925050606085013567ffffffffffffffff811115611cbc57611cbb611769565b5b611cc887828801611c23565b91505092959194509250565b600067ffffffffffffffff821115611cef57611cee611b26565b5b611cf88261186f565b9050602081019050919050565b6000611d18611d1384611cd4565b611b86565b905082815260208101848484011115611d3457611d33611b21565b5b611d3f848285611bd2565b509392505050565b600082601f830112611d5c57611d5b611b1c565b5b8135611d6c848260208601611d05565b91505092915050565b600060208284031215611d8b57611d8a611764565b5b600082013567ffffffffffffffff811115611da957611da8611769565b5b611db584828501611d47565b91505092915050565b60008060408385031215611dd557611dd4611764565b5b6000611de3858286016119b1565b9250506020611df4858286016119b1565b9150509250929050565b7f4e487b7100000000000000000000000000000000000000000000000000000000600052602260045260246000fd5b60006002820490506001821680611e4557607f821691505b602082108103611e5857611e57611dfe565b5b50919050565b7f4552433732313a20617070726f76616c20746f2063757272656e74206f776e6560008201527f7200000000000000000000000000000000000000000000000000000000000000602082015250565b6000611eba602183611834565b9150611ec582611e5e565b604082019050919050565b60006020820190508181036000830152611ee981611ead565b9050919050565b7f4552433732313a20617070726f76652063616c6c6572206973206e6f7420746f60008201527f6b656e206f776e6572206e6f7220617070726f76656420666f7220616c6c0000602082015250565b6000611f4c603e83611834565b9150611f5782611ef0565b604082019050919050565b60006020820190508181036000830152611f7b81611f3f565b9050919050565b7f4552433732313a2063616c6c6572206973206e6f7420746f6b656e206f776e6560008201527f72206e6f7220617070726f766564000000000000000000000000000000000000602082015250565b6000611fde602e83611834565b9150611fe982611f82565b604082019050919050565b6000602082019050818103600083015261200d81611fd1565b9050919050565b7f4552433732313a20696e76616c696420746f6b656e2049440000000000000000600082015250565b600061204a601883611834565b915061205582612014565b602082019050919050565b600060208201905081810360008301526120798161203d565b9050919050565b7f4552433732313a2061646472657373207a65726f206973206e6f74206120766160008201527f6c6964206f776e65720000000000000000000000000000000000000000000000602082015250565b60006120dc602983611834565b91506120e782612080565b604082019050919050565b6000602082019050818103600083015261210b816120cf565b9050919050565b600081905092915050565b600061212882611829565b6121328185612112565b9350612142818560208601611845565b80840191505092915050565b600061215a828561211d565b9150612166828461211d565b91508190509392505050565b7f4e487b7100000000000000000000000000000000000000000000000000000000600052601160045260246000fd5b60006121ac826118db565b91507fffffffffffffffffffffffffffffffffffffffffffffffffffffffffffffffff82036121de576121dd612172565b5b600182019050919050565b7f4552433732313a207472616e736665722066726f6d20696e636f72726563742060008201527f6f776e6572000000000000000000000000000000000000000000000000000000602082015250565b6000612245602583611834565b9150612250826121e9565b604082019050919050565b6000602082019050818103600083015261227481612238565b9050919050565b7f4552433732313a207472616e7366657220746f20746865207a65726f2061646460008201527f7265737300000000000000000000000000000000000000000000000000000000602082015250565b60006122d7602483611834565b91506122e28261227b565b604082019050919050565b60006020820190508181036000830152612306816122ca565b9050919050565b6000612318826118db565b9150612323836118db565b925082820390508181111561233b5761233a612172565b5b92915050565b600061234c826118db565b9150612357836118db565b925082820190508082111561236f5761236e612172565b5b92915050565b7f4552433732313a20617070726f766520746f2063616c6c657200000000000000600082015250565b60006123ab601983611834565b91506123b682612375565b602082019050919050565b600060208201905081810360008301526123da8161239e565b9050919050565b7f4552433732313a207472616e7366657220746f206e6f6e20455243373231526560008201527f63656976657220696d706c656d656e7465720000000000000000000000000000602082015250565b600061243d603283611834565b9150612448826123e1565b604082019050919050565b6000602082019050818103600083015261246c81612430565b9050919050565b7f4552433732313a206d696e7420746f20746865207a65726f2061646472657373600082015250565b60006124a9602083611834565b91506124b482612473565b602082019050919050565b600060208201905081810360008301526124d88161249c565b9050919050565b7f4552433732313a20746f6b656e20616c7265616479206d696e74656400000000600082015250565b6000612515601c83611834565b9150612520826124df565b602082019050919050565b6000602082019050818103600083015261254481612508565b9050919050565b7f45524337323155524953746f726167653a2055524920736574206f66206e6f6e60008201527f6578697374656e7420746f6b656e000000000000000000000000000000000000602082015250565b60006125a7602e83611834565b91506125b28261254b565b604082019050919050565b600060208201905081810360008301526125d68161259a565b9050919050565b60008190508160005260206000209050919050565b60006020601f8301049050919050565b600082821b905092915050565b60006008830261263f7fffffffffffffffffffffffffffffffffffffffffffffffffffffffffffffffff82612602565b6126498683612602565b95508019841693508086168417925050509392505050565b6000819050919050565b600061268661268161267c846118db565b612661565b6118db565b9050919050565b6000819050919050565b6126a08361266b565b6126b46126ac8261268d565b84845461260f565b825550505050565b600090565b6126c96126bc565b6126d4818484612697565b505050565b5b818110156126f8576126ed6000826126c1565b6001810190506126da565b5050565b601f82111561273d5761270e816125dd565b612717846125f2565b81016020851015612726578190505b61273a612732856125f2565b8301826126d9565b50505b505050565b600082821c905092915050565b600061276060001984600802612742565b1980831691505092915050565b6000612779838361274f565b9150826002028217905092915050565b61279282611829565b67ffffffffffffffff8111156127ab576127aa611b26565b5b6127b58254611e2d565b6127c08282856126fc565b600060209050601f8311600181146127f357600084156127e1578287015190505b6127eb858261276d565b865550612853565b601f198416612801866125dd565b60005b8281101561282957848901518255600182019150602085019450602081019050612804565b868310156128465784890151612842601f89168261274f565b8355505b6001600288020188555050505b505050505050565b600081519050919050565b600082825260208201905092915050565b60006128828261285b565b61288c8185612866565b935061289c818560208601611845565b6128a58161186f565b840191505092915050565b60006080820190506128c56000830187611970565b6128d26020830186611970565b6128df6040830185611a59565b81810360608301526128f18184612877565b905095945050505050565b60008151905061290b8161179a565b92915050565b60006020828403121561292757612926611764565b5b6000612935848285016128fc565b91505092915050565b7f4e487b7100000000000000000000000000000000000000000000000000000000600052601260045260246000fd5b6000612978826118db565b9150612983836118db565b9250826129935761299261293e565b5b828204905092915050565b60006129a9826118db565b91506129b4836118db565b9250826129c4576129c361293e565b5b828206905092915050565b7f4e487b7100000000000000000000000000000000000000000000000000000000600052603260045260246000fdfea264697066735822122000d43d45074fdba3cb5f65d98c96600b898fb9aa03436e7b2e651ea16d85ec9464736f6c63430008110033",
  "linkReferences": {},
  "deployedLinkReferences": {}
}