{
  "_format": "hh-sol-artifact-1",
  "contractName": "Escrow",
  "sourceName": "contracts/Escrow.sol",
  "abi": [
    {
      "inputs": [
        {
          "internalType": "address",
          "name": "_nft_address",
          "type": "address"
        },
        {
          "internalType": "address payable",
          "name": "_seller",
          "type": "address"
        },
        {
          "internalType": "address",
          "name": "_lender",
          "type": "address"
        },
        {
          "internalType": "address",
          "name": "_inspector",
          "type": "address"
        }
      ],
      "stateMutability": "nonpayable",
      "type": "constructor"
    },
    {
      "inputs": [],
      "name": "Inspector",
      "outputs": [
        {
          "internalType": "address",
          "name": "",
          "type": "address"
        }
      ],
      "stateMutability": "view",
      "type": "function"
    },
    {
      "inputs": [
        {
          "internalType": "uint256",
          "name": "",
          "type": "uint256"
        }
      ],
      "name": "buyer",
      "outputs": [
        {
          "internalType": "address",
          "name": "",
          "type": "address"
        }
      ],
      "stateMutability": "view",
      "type": "function"
    },
    {
      "inputs": [
        {
          "internalType": "uint256",
          "name": "_nft_id",
          "type": "uint256"
        }
      ],
      "name": "deposite_earnest",
      "outputs": [],
      "stateMutability": "payable",
      "type": "function"
    },
    {
      "inputs": [
        {
          "internalType": "uint256",
          "name": "",
          "type": "uint256"
        }
      ],
      "name": "escrow_amount",
      "outputs": [
        {
          "internalType": "uint256",
          "name": "",
          "type": "uint256"
        }
      ],
      "stateMutability": "view",
      "type": "function"
    },
    {
      "inputs": [],
      "name": "getBalance",
      "outputs": [
        {
          "internalType": "uint256",
          "name": "",
          "type": "uint256"
        }
      ],
      "stateMutability": "view",
      "type": "function"
    },
    {
      "inputs": [
        {
          "internalType": "uint256",
          "name": "",
          "type": "uint256"
        }
      ],
      "name": "is_listed_check",
      "outputs": [
        {
          "internalType": "bool",
          "name": "",
          "type": "bool"
        }
      ],
      "stateMutability": "view",
      "type": "function"
    },
    {
      "inputs": [],
      "name": "lender",
      "outputs": [
        {
          "internalType": "address",
          "name": "",
          "type": "address"
        }
      ],
      "stateMutability": "view",
      "type": "function"
    },
    {
      "inputs": [
        {
          "internalType": "uint256",
          "name": "_nftID",
          "type": "uint256"
        },
        {
          "internalType": "address",
          "name": "_buyer",
          "type": "address"
        },
        {
          "internalType": "uint256",
          "name": "_purchase_price",
          "type": "uint256"
        },
        {
          "internalType": "uint256",
          "name": "_escrow_amount",
          "type": "uint256"
        }
      ],
      "name": "list",
      "outputs": [],
      "stateMutability": "payable",
      "type": "function"
    },
    {
      "inputs": [],
      "name": "nft_address",
      "outputs": [
        {
          "internalType": "address",
          "name": "",
          "type": "address"
        }
      ],
      "stateMutability": "view",
      "type": "function"
    },
    {
      "inputs": [
        {
          "internalType": "uint256",
          "name": "",
          "type": "uint256"
        }
      ],
      "name": "purchase_price",
      "outputs": [
        {
          "internalType": "uint256",
          "name": "",
          "type": "uint256"
        }
      ],
      "stateMutability": "view",
      "type": "function"
    },
    {
      "inputs": [],
      "name": "seller",
      "outputs": [
        {
          "internalType": "address payable",
          "name": "",
          "type": "address"
        }
      ],
      "stateMutability": "view",
      "type": "function"
    }
  ],
  "bytecode": "0x60806040523480156200001157600080fd5b5060405162000c6838038062000c688339818101604052810190620000379190620001f3565b836000806101000a81548173ffffffffffffffffffffffffffffffffffffffff021916908373ffffffffffffffffffffffffffffffffffffffff16021790555082600160006101000a81548173ffffffffffffffffffffffffffffffffffffffff021916908373ffffffffffffffffffffffffffffffffffffffff16021790555081600260006101000a81548173ffffffffffffffffffffffffffffffffffffffff021916908373ffffffffffffffffffffffffffffffffffffffff16021790555080600360006101000a81548173ffffffffffffffffffffffffffffffffffffffff021916908373ffffffffffffffffffffffffffffffffffffffff1602179055505050505062000265565b600080fd5b600073ffffffffffffffffffffffffffffffffffffffff82169050919050565b6000620001768262000149565b9050919050565b620001888162000169565b81146200019457600080fd5b50565b600081519050620001a8816200017d565b92915050565b6000620001bb8262000149565b9050919050565b620001cd81620001ae565b8114620001d957600080fd5b50565b600081519050620001ed81620001c2565b92915050565b6000806000806080858703121562000210576200020f62000144565b5b6000620002208782880162000197565b94505060206200023387828801620001dc565b9350506040620002468782880162000197565b9250506060620002598782880162000197565b91505092959194509250565b6109f380620002756000396000f3fe60806040526004361061009c5760003560e01c80638123fe46116100645780638123fe461461018d578063bcead63e146101ca578063c78de709146101f5578063c9f0ec7e14610220578063df73f0e61461023c578063f3535764146102795761009c565b806308551a53146100a157806312065fe0146100cc57806328aeda66146100f757806344bfcd8a146101345780634dd4acaf14610150575b600080fd5b3480156100ad57600080fd5b506100b66102a4565b6040516100c3919061069f565b60405180910390f35b3480156100d857600080fd5b506100e16102ca565b6040516100ee91906106d3565b60405180910390f35b34801561010357600080fd5b5061011e6004803603810190610119919061071f565b6102d2565b60405161012b91906106d3565b60405180910390f35b61014e6004803603810190610149919061071f565b6102ea565b005b34801561015c57600080fd5b506101776004803603810190610172919061071f565b6103b0565b604051610184919061076d565b60405180910390f35b34801561019957600080fd5b506101b460048036038101906101af919061071f565b6103e3565b6040516101c191906106d3565b60405180910390f35b3480156101d657600080fd5b506101df6103fb565b6040516101ec919061076d565b60405180910390f35b34801561020157600080fd5b5061020a610421565b604051610217919061076d565b60405180910390f35b61023a600480360381019061023591906107b4565b610445565b005b34801561024857600080fd5b50610263600480360381019061025e919061071f565b610618565b6040516102709190610836565b60405180910390f35b34801561028557600080fd5b5061028e610638565b60405161029b919061076d565b60405180910390f35b600160009054906101000a900473ffffffffffffffffffffffffffffffffffffffff1681565b600047905090565b60056020528060005260406000206000915090505481565b806007600082815260200190815260200160002060009054906101000a900473ffffffffffffffffffffffffffffffffffffffff1673ffffffffffffffffffffffffffffffffffffffff163373ffffffffffffffffffffffffffffffffffffffff161461038c576040517f08c379a0000000000000000000000000000000000000000000000000000000008152600401610383906108d4565b60405180910390fd5b60066000838152602001908152602001600020543410156103ac57600080fd5b5050565b60076020528060005260406000206000915054906101000a900473ffffffffffffffffffffffffffffffffffffffff1681565b60066020528060005260406000206000915090505481565b600260009054906101000a900473ffffffffffffffffffffffffffffffffffffffff1681565b60008054906101000a900473ffffffffffffffffffffffffffffffffffffffff1681565b600160009054906101000a900473ffffffffffffffffffffffffffffffffffffffff1673ffffffffffffffffffffffffffffffffffffffff163373ffffffffffffffffffffffffffffffffffffffff16146104d5576040517f08c379a00000000000000000000000000000000000000000000000000000000081526004016104cc90610966565b60405180910390fd5b60008054906101000a900473ffffffffffffffffffffffffffffffffffffffff1673ffffffffffffffffffffffffffffffffffffffff166323b872dd3330876040518463ffffffff1660e01b815260040161053293929190610986565b600060405180830381600087803b15801561054c57600080fd5b505af1158015610560573d6000803e3d6000fd5b5050505060016004600086815260200190815260200160002060006101000a81548160ff021916908315150217905550816005600086815260200190815260200160002081905550806006600086815260200190815260200160002081905550826007600086815260200190815260200160002060006101000a81548173ffffffffffffffffffffffffffffffffffffffff021916908373ffffffffffffffffffffffffffffffffffffffff16021790555050505050565b60046020528060005260406000206000915054906101000a900460ff1681565b600360009054906101000a900473ffffffffffffffffffffffffffffffffffffffff1681565b600073ffffffffffffffffffffffffffffffffffffffff82169050919050565b60006106898261065e565b9050919050565b6106998161067e565b82525050565b60006020820190506106b46000830184610690565b92915050565b6000819050919050565b6106cd816106ba565b82525050565b60006020820190506106e860008301846106c4565b92915050565b600080fd5b6106fc816106ba565b811461070757600080fd5b50565b600081359050610719816106f3565b92915050565b600060208284031215610735576107346106ee565b5b60006107438482850161070a565b91505092915050565b60006107578261065e565b9050919050565b6107678161074c565b82525050565b6000602082019050610782600083018461075e565b92915050565b6107918161074c565b811461079c57600080fd5b50565b6000813590506107ae81610788565b92915050565b600080600080608085870312156107ce576107cd6106ee565b5b60006107dc8782880161070a565b94505060206107ed8782880161079f565b93505060406107fe8782880161070a565b925050606061080f8782880161070a565b91505092959194509250565b60008115159050919050565b6108308161081b565b82525050565b600060208201905061084b6000830184610827565b92915050565b600082825260208201905092915050565b7f4f6e6c792042757965722068617665207065726d697373696f6e7320746f206360008201527f616c6c2074686973206d6574686f640000000000000000000000000000000000602082015250565b60006108be602f83610851565b91506108c982610862565b604082019050919050565b600060208201905081810360008301526108ed816108b1565b9050919050565b7f4f6e6c792053656c6c65722068617665207065726d697373696f6e7320746f2060008201527f63616c6c2074686973206d6574686f6400000000000000000000000000000000602082015250565b6000610950603083610851565b915061095b826108f4565b604082019050919050565b6000602082019050818103600083015261097f81610943565b9050919050565b600060608201905061099b600083018661075e565b6109a8602083018561075e565b6109b560408301846106c4565b94935050505056fea2646970667358221220cf2749f762f24e25af748ac5ba2c94226243374df693b6e6071caf1b847ed0b464736f6c63430008110033",
  "linkReferences": {},
  "deployedLinkReferences": {}
}