{
  "_format": "hh-sol-artifact-1",
  "contractName": "Escrow",
  "sourceName": "contracts/Escrow.sol",
  "abi": [
    {
      "inputs": [
        {
          "internalType": "address",
          "name": "_nft_address",
          "type": "address"
        },
        {
          "internalType": "address payable",
          "name": "_seller",
          "type": "address"
        },
        {
          "internalType": "address",
          "name": "_lender",
          "type": "address"
        },
        {
          "internalType": "address",
          "name": "_inspector",
          "type": "address"
        }
      ],
      "stateMutability": "nonpayable",
      "type": "constructor"
    },
    {
      "inputs": [],
      "name": "Inspector",
      "outputs": [
        {
          "internalType": "address",
          "name": "",
          "type": "address"
        }
      ],
      "stateMutability": "view",
      "type": "function"
    },
    {
      "inputs": [
        {
          "internalType": "uint256",
          "name": "",
          "type": "uint256"
        },
        {
          "internalType": "address",
          "name": "",
          "type": "address"
        }
      ],
      "name": "approval",
      "outputs": [
        {
          "internalType": "bool",
          "name": "",
          "type": "bool"
        }
      ],
      "stateMutability": "view",
      "type": "function"
    },
    {
      "inputs": [
        {
          "internalType": "uint256",
          "name": "",
          "type": "uint256"
        }
      ],
      "name": "buyer",
      "outputs": [
        {
          "internalType": "address",
          "name": "",
          "type": "address"
        }
      ],
      "stateMutability": "view",
      "type": "function"
    },
    {
      "inputs": [
        {
          "internalType": "uint256",
          "name": "_nft_id",
          "type": "uint256"
        }
      ],
      "name": "deposite_earnest",
      "outputs": [],
      "stateMutability": "payable",
      "type": "function"
    },
    {
      "inputs": [
        {
          "internalType": "uint256",
          "name": "",
          "type": "uint256"
        }
      ],
      "name": "escrow_amount",
      "outputs": [
        {
          "internalType": "uint256",
          "name": "",
          "type": "uint256"
        }
      ],
      "stateMutability": "view",
      "type": "function"
    },
    {
      "inputs": [
        {
          "internalType": "uint256",
          "name": "_nft_id",
          "type": "uint256"
        }
      ],
      "name": "finalize_sell",
      "outputs": [],
      "stateMutability": "nonpayable",
      "type": "function"
    },
    {
      "inputs": [],
      "name": "getBalance",
      "outputs": [
        {
          "internalType": "uint256",
          "name": "",
          "type": "uint256"
        }
      ],
      "stateMutability": "view",
      "type": "function"
    },
    {
      "inputs": [
        {
          "internalType": "uint256",
          "name": "",
          "type": "uint256"
        }
      ],
      "name": "inpection_check",
      "outputs": [
        {
          "internalType": "bool",
          "name": "",
          "type": "bool"
        }
      ],
      "stateMutability": "view",
      "type": "function"
    },
    {
      "inputs": [
        {
          "internalType": "uint256",
          "name": "_nft_id",
          "type": "uint256"
        },
        {
          "internalType": "bool",
          "name": "_result",
          "type": "bool"
        }
      ],
      "name": "inpection_test",
      "outputs": [],
      "stateMutability": "nonpayable",
      "type": "function"
    },
    {
      "inputs": [
        {
          "internalType": "uint256",
          "name": "",
          "type": "uint256"
        }
      ],
      "name": "is_listed_check",
      "outputs": [
        {
          "internalType": "bool",
          "name": "",
          "type": "bool"
        }
      ],
      "stateMutability": "view",
      "type": "function"
    },
    {
      "inputs": [],
      "name": "lender",
      "outputs": [
        {
          "internalType": "address",
          "name": "",
          "type": "address"
        }
      ],
      "stateMutability": "view",
      "type": "function"
    },
    {
      "inputs": [
        {
          "internalType": "uint256",
          "name": "_nftID",
          "type": "uint256"
        },
        {
          "internalType": "address",
          "name": "_buyer",
          "type": "address"
        },
        {
          "internalType": "uint256",
          "name": "_purchase_price",
          "type": "uint256"
        },
        {
          "internalType": "uint256",
          "name": "_escrow_amount",
          "type": "uint256"
        }
      ],
      "name": "list",
      "outputs": [],
      "stateMutability": "payable",
      "type": "function"
    },
    {
      "inputs": [],
      "name": "nft_address",
      "outputs": [
        {
          "internalType": "address",
          "name": "",
          "type": "address"
        }
      ],
      "stateMutability": "view",
      "type": "function"
    },
    {
      "inputs": [
        {
          "internalType": "uint256",
          "name": "",
          "type": "uint256"
        }
      ],
      "name": "purchase_price",
      "outputs": [
        {
          "internalType": "uint256",
          "name": "",
          "type": "uint256"
        }
      ],
      "stateMutability": "view",
      "type": "function"
    },
    {
      "inputs": [
        {
          "internalType": "uint256",
          "name": "_nft_id",
          "type": "uint256"
        }
      ],
      "name": "sell_approval",
      "outputs": [],
      "stateMutability": "nonpayable",
      "type": "function"
    },
    {
      "inputs": [],
      "name": "seller",
      "outputs": [
        {
          "internalType": "address payable",
          "name": "",
          "type": "address"
        }
      ],
      "stateMutability": "view",
      "type": "function"
    }
  ],
  "bytecode": "0x60806040523480156200001157600080fd5b50604051620016e2380380620016e28339818101604052810190620000379190620001f3565b836000806101000a81548173ffffffffffffffffffffffffffffffffffffffff021916908373ffffffffffffffffffffffffffffffffffffffff16021790555082600160006101000a81548173ffffffffffffffffffffffffffffffffffffffff021916908373ffffffffffffffffffffffffffffffffffffffff16021790555081600260006101000a81548173ffffffffffffffffffffffffffffffffffffffff021916908373ffffffffffffffffffffffffffffffffffffffff16021790555080600360006101000a81548173ffffffffffffffffffffffffffffffffffffffff021916908373ffffffffffffffffffffffffffffffffffffffff1602179055505050505062000265565b600080fd5b600073ffffffffffffffffffffffffffffffffffffffff82169050919050565b6000620001768262000149565b9050919050565b620001888162000169565b81146200019457600080fd5b50565b600081519050620001a8816200017d565b92915050565b6000620001bb8262000149565b9050919050565b620001cd81620001ae565b8114620001d957600080fd5b50565b600081519050620001ed81620001c2565b92915050565b6000806000806080858703121562000210576200020f62000144565b5b6000620002208782880162000197565b94505060206200023387828801620001dc565b9350506040620002468782880162000197565b9250506060620002598782880162000197565b91505092959194509250565b61146d80620002756000396000f3fe6080604052600436106100f35760003560e01c80638123fe461161008a578063c9f0ec7e11610059578063c9f0ec7e14610343578063d27a75ea1461035f578063df73f0e614610388578063f3535764146103c5576100f3565b80638123fe4614610273578063b848de35146102b0578063bcead63e146102ed578063c78de70914610318576100f3565b806328aeda66116100c657806328aeda66146101b457806344bfcd8a146101f15780634dd4acaf1461020d5780637b2c22b11461024a576100f3565b8063072a311e146100f857806308551a53146101215780630f5debfd1461014c57806312065fe014610189575b600080fd5b34801561010457600080fd5b5061011f600480360381019061011a9190610d01565b6103f0565b005b34801561012d57600080fd5b5061013661045c565b6040516101439190610d6f565b60405180910390f35b34801561015857600080fd5b50610173600480360381019061016e9190610d01565b610482565b6040516101809190610da5565b60405180910390f35b34801561019557600080fd5b5061019e6104a2565b6040516101ab9190610dcf565b60405180910390f35b3480156101c057600080fd5b506101db60048036038101906101d69190610d01565b6104aa565b6040516101e89190610dcf565b60405180910390f35b61020b60048036038101906102069190610d01565b6104c2565b005b34801561021957600080fd5b50610234600480360381019061022f9190610d01565b610588565b6040516102419190610e0b565b60405180910390f35b34801561025657600080fd5b50610271600480360381019061026c9190610e52565b6105bb565b005b34801561027f57600080fd5b5061029a60048036038101906102959190610d01565b61067c565b6040516102a79190610dcf565b60405180910390f35b3480156102bc57600080fd5b506102d760048036038101906102d29190610ebe565b610694565b6040516102e49190610da5565b60405180910390f35b3480156102f957600080fd5b506103026106c3565b60405161030f9190610e0b565b60405180910390f35b34801561032457600080fd5b5061032d6106e9565b60405161033a9190610e0b565b60405180910390f35b61035d60048036038101906103589190610efe565b61070d565b005b34801561036b57600080fd5b5061038660048036038101906103819190610d01565b6108e0565b005b34801561039457600080fd5b506103af60048036038101906103aa9190610d01565b610c80565b6040516103bc9190610da5565b60405180910390f35b3480156103d157600080fd5b506103da610ca0565b6040516103e79190610e0b565b60405180910390f35b60016009600083815260200190815260200160002060003373ffffffffffffffffffffffffffffffffffffffff1673ffffffffffffffffffffffffffffffffffffffff16815260200190815260200160002060006101000a81548160ff02191690831515021790555050565b600160009054906101000a900473ffffffffffffffffffffffffffffffffffffffff1681565b60086020528060005260406000206000915054906101000a900460ff1681565b600047905090565b60056020528060005260406000206000915090505481565b806007600082815260200190815260200160002060009054906101000a900473ffffffffffffffffffffffffffffffffffffffff1673ffffffffffffffffffffffffffffffffffffffff163373ffffffffffffffffffffffffffffffffffffffff1614610564576040517f08c379a000000000000000000000000000000000000000000000000000000000815260040161055b90610fe8565b60405180910390fd5b600660008381526020019081526020016000205434101561058457600080fd5b5050565b60076020528060005260406000206000915054906101000a900473ffffffffffffffffffffffffffffffffffffffff1681565b81600360009054906101000a900473ffffffffffffffffffffffffffffffffffffffff1673ffffffffffffffffffffffffffffffffffffffff163373ffffffffffffffffffffffffffffffffffffffff161461064c576040517f08c379a00000000000000000000000000000000000000000000000000000000081526004016106439061107a565b60405180910390fd5b816008600085815260200190815260200160002060006101000a81548160ff021916908315150217905550505050565b60066020528060005260406000206000915090505481565b60096020528160005260406000206020528060005260406000206000915091509054906101000a900460ff1681565b600260009054906101000a900473ffffffffffffffffffffffffffffffffffffffff1681565b60008054906101000a900473ffffffffffffffffffffffffffffffffffffffff1681565b600160009054906101000a900473ffffffffffffffffffffffffffffffffffffffff1673ffffffffffffffffffffffffffffffffffffffff163373ffffffffffffffffffffffffffffffffffffffff161461079d576040517f08c379a00000000000000000000000000000000000000000000000000000000081526004016107949061110c565b60405180910390fd5b60008054906101000a900473ffffffffffffffffffffffffffffffffffffffff1673ffffffffffffffffffffffffffffffffffffffff166323b872dd3330876040518463ffffffff1660e01b81526004016107fa9392919061112c565b600060405180830381600087803b15801561081457600080fd5b505af1158015610828573d6000803e3d6000fd5b5050505060016004600086815260200190815260200160002060006101000a81548160ff021916908315150217905550816005600086815260200190815260200160002081905550806006600086815260200190815260200160002081905550826007600086815260200190815260200160002060006101000a81548173ffffffffffffffffffffffffffffffffffffffff021916908373ffffffffffffffffffffffffffffffffffffffff16021790555050505050565b600115156008600083815260200190815260200160002060009054906101000a900460ff16151514610947576040517f08c379a000000000000000000000000000000000000000000000000000000000815260040161093e906111d5565b60405180910390fd5b6009600082815260200190815260200160002060006007600084815260200190815260200160002060009054906101000a900473ffffffffffffffffffffffffffffffffffffffff1673ffffffffffffffffffffffffffffffffffffffff1673ffffffffffffffffffffffffffffffffffffffff16815260200190815260200160002060009054906101000a900460ff16610a17576040517f08c379a0000000000000000000000000000000000000000000000000000000008152600401610a0e90611241565b60405180910390fd5b600960008281526020019081526020016000206000600160009054906101000a900473ffffffffffffffffffffffffffffffffffffffff1673ffffffffffffffffffffffffffffffffffffffff1673ffffffffffffffffffffffffffffffffffffffff16815260200190815260200160002060009054906101000a900460ff16610ad6576040517f08c379a0000000000000000000000000000000000000000000000000000000008152600401610acd906112ad565b60405180910390fd5b600960008281526020019081526020016000206000600260009054906101000a900473ffffffffffffffffffffffffffffffffffffffff1673ffffffffffffffffffffffffffffffffffffffff1673ffffffffffffffffffffffffffffffffffffffff16815260200190815260200160002060009054906101000a900460ff16610b95576040517f08c379a0000000000000000000000000000000000000000000000000000000008152600401610b8c90611319565b60405180910390fd5b6006600082815260200190815260200160002054471015610beb576040517f08c379a0000000000000000000000000000000000000000000000000000000008152600401610be2906113ab565b60405180910390fd5b600080600160009054906101000a900473ffffffffffffffffffffffffffffffffffffffff1673ffffffffffffffffffffffffffffffffffffffff1647604051610c3490611422565b60006040518083038185875af1925050503d8060008114610c71576040519150601f19603f3d011682016040523d82523d6000602084013e610c76565b606091505b5091509150505050565b60046020528060005260406000206000915054906101000a900460ff1681565b600360009054906101000a900473ffffffffffffffffffffffffffffffffffffffff1681565b600080fd5b6000819050919050565b610cde81610ccb565b8114610ce957600080fd5b50565b600081359050610cfb81610cd5565b92915050565b600060208284031215610d1757610d16610cc6565b5b6000610d2584828501610cec565b91505092915050565b600073ffffffffffffffffffffffffffffffffffffffff82169050919050565b6000610d5982610d2e565b9050919050565b610d6981610d4e565b82525050565b6000602082019050610d846000830184610d60565b92915050565b60008115159050919050565b610d9f81610d8a565b82525050565b6000602082019050610dba6000830184610d96565b92915050565b610dc981610ccb565b82525050565b6000602082019050610de46000830184610dc0565b92915050565b6000610df582610d2e565b9050919050565b610e0581610dea565b82525050565b6000602082019050610e206000830184610dfc565b92915050565b610e2f81610d8a565b8114610e3a57600080fd5b50565b600081359050610e4c81610e26565b92915050565b60008060408385031215610e6957610e68610cc6565b5b6000610e7785828601610cec565b9250506020610e8885828601610e3d565b9150509250929050565b610e9b81610dea565b8114610ea657600080fd5b50565b600081359050610eb881610e92565b92915050565b60008060408385031215610ed557610ed4610cc6565b5b6000610ee385828601610cec565b9250506020610ef485828601610ea9565b9150509250929050565b60008060008060808587031215610f1857610f17610cc6565b5b6000610f2687828801610cec565b9450506020610f3787828801610ea9565b9350506040610f4887828801610cec565b9250506060610f5987828801610cec565b91505092959194509250565b600082825260208201905092915050565b7f4f6e6c792042757965722068617665207065726d697373696f6e7320746f206360008201527f616c6c2074686973206d6574686f640000000000000000000000000000000000602082015250565b6000610fd2602f83610f65565b9150610fdd82610f76565b604082019050919050565b6000602082019050818103600083015261100181610fc5565b9050919050565b7f4f6e6c7920496e73706563746f722068617665207065726d697373696f6e732060008201527f746f2063616c6c2074686973206d6574686f6400000000000000000000000000602082015250565b6000611064603383610f65565b915061106f82611008565b604082019050919050565b6000602082019050818103600083015261109381611057565b9050919050565b7f4f6e6c792053656c6c65722068617665207065726d697373696f6e7320746f2060008201527f63616c6c2074686973206d6574686f6400000000000000000000000000000000602082015250565b60006110f6603083610f65565b91506111018261109a565b604082019050919050565b60006020820190508181036000830152611125816110e9565b9050919050565b60006060820190506111416000830186610dfc565b61114e6020830185610dfc565b61115b6040830184610dc0565b949350505050565b7f696e70656374696f6e5f636865636b206f662074686973206e6674206973206660008201527f616c7365206974206d7573742062652074727565200000000000000000000000602082015250565b60006111bf603583610f65565b91506111ca82611163565b604082019050919050565b600060208201905081810360008301526111ee816111b2565b9050919050565b7f42757965722063616e277420617070726f7665642074686973204e4654200000600082015250565b600061122b601e83610f65565b9150611236826111f5565b602082019050919050565b6000602082019050818103600083015261125a8161121e565b9050919050565b7f2053656c6c65722063616e277420617070726f7665642074686973204e465420600082015250565b6000611297602083610f65565b91506112a282611261565b602082019050919050565b600060208201905081810360008301526112c68161128a565b9050919050565b7f4c656e6465722043616e277420617070726f757665202074686973204e465400600082015250565b6000611303601f83610f65565b915061130e826112cd565b602082019050919050565b60006020820190508181036000830152611332816112f6565b9050919050565b7f596f75722042616c616e656365206973206e6f7420456e6f75676820666f722060008201527f457363726f772000000000000000000000000000000000000000000000000000602082015250565b6000611395602783610f65565b91506113a082611339565b604082019050919050565b600060208201905081810360008301526113c481611388565b9050919050565b600081905092915050565b7f457363726f77207472616e736665722066756e647320746f2073656c6c657220600082015250565b600061140c6020836113cb565b9150611417826113d6565b602082019050919050565b600061142d826113ff565b915081905091905056fea26469706673582212209b2cd824f67bac8f791e39f751d5c9ea5853e43434807203cd27b55aa8b03e2264736f6c63430008110033",
  "linkReferences": {},
  "deployedLinkReferences": {}
}