{
  "_format": "hh-sol-artifact-1",
  "contractName": "Escrow",
  "sourceName": "contracts/Escrow.sol",
  "abi": [
    {
      "inputs": [
        {
          "internalType": "address",
          "name": "_nft_address",
          "type": "address"
        },
        {
          "internalType": "address payable",
          "name": "_seller",
          "type": "address"
        },
        {
          "internalType": "address",
          "name": "_lender",
          "type": "address"
        },
        {
          "internalType": "address",
          "name": "_inspector",
          "type": "address"
        }
      ],
      "stateMutability": "nonpayable",
      "type": "constructor"
    },
    {
      "inputs": [],
      "name": "Inspector",
      "outputs": [
        {
          "internalType": "address",
          "name": "",
          "type": "address"
        }
      ],
      "stateMutability": "view",
      "type": "function"
    },
    {
      "inputs": [
        {
          "internalType": "uint256",
          "name": "",
          "type": "uint256"
        }
      ],
      "name": "buyer",
      "outputs": [
        {
          "internalType": "address",
          "name": "",
          "type": "address"
        }
      ],
      "stateMutability": "view",
      "type": "function"
    },
    {
      "inputs": [
        {
          "internalType": "uint256",
          "name": "_nft_id",
          "type": "uint256"
        }
      ],
      "name": "deposite_earnest",
      "outputs": [],
      "stateMutability": "payable",
      "type": "function"
    },
    {
      "inputs": [
        {
          "internalType": "uint256",
          "name": "",
          "type": "uint256"
        }
      ],
      "name": "escrow_amount",
      "outputs": [
        {
          "internalType": "uint256",
          "name": "",
          "type": "uint256"
        }
      ],
      "stateMutability": "view",
      "type": "function"
    },
    {
      "inputs": [],
      "name": "getBalance",
      "outputs": [
        {
          "internalType": "uint256",
          "name": "",
          "type": "uint256"
        }
      ],
      "stateMutability": "view",
      "type": "function"
    },
    {
      "inputs": [
        {
          "internalType": "uint256",
          "name": "",
          "type": "uint256"
        }
      ],
      "name": "inpection_check",
      "outputs": [
        {
          "internalType": "bool",
          "name": "",
          "type": "bool"
        }
      ],
      "stateMutability": "view",
      "type": "function"
    },
    {
      "inputs": [
        {
          "internalType": "uint256",
          "name": "_nft_id",
          "type": "uint256"
        },
        {
          "internalType": "bool",
          "name": "_result",
          "type": "bool"
        }
      ],
      "name": "inpection_test",
      "outputs": [],
      "stateMutability": "nonpayable",
      "type": "function"
    },
    {
      "inputs": [
        {
          "internalType": "uint256",
          "name": "",
          "type": "uint256"
        }
      ],
      "name": "is_listed_check",
      "outputs": [
        {
          "internalType": "bool",
          "name": "",
          "type": "bool"
        }
      ],
      "stateMutability": "view",
      "type": "function"
    },
    {
      "inputs": [],
      "name": "lender",
      "outputs": [
        {
          "internalType": "address",
          "name": "",
          "type": "address"
        }
      ],
      "stateMutability": "view",
      "type": "function"
    },
    {
      "inputs": [
        {
          "internalType": "uint256",
          "name": "_nftID",
          "type": "uint256"
        },
        {
          "internalType": "address",
          "name": "_buyer",
          "type": "address"
        },
        {
          "internalType": "uint256",
          "name": "_purchase_price",
          "type": "uint256"
        },
        {
          "internalType": "uint256",
          "name": "_escrow_amount",
          "type": "uint256"
        }
      ],
      "name": "list",
      "outputs": [],
      "stateMutability": "payable",
      "type": "function"
    },
    {
      "inputs": [],
      "name": "nft_address",
      "outputs": [
        {
          "internalType": "address",
          "name": "",
          "type": "address"
        }
      ],
      "stateMutability": "view",
      "type": "function"
    },
    {
      "inputs": [
        {
          "internalType": "uint256",
          "name": "",
          "type": "uint256"
        }
      ],
      "name": "purchase_price",
      "outputs": [
        {
          "internalType": "uint256",
          "name": "",
          "type": "uint256"
        }
      ],
      "stateMutability": "view",
      "type": "function"
    },
    {
      "inputs": [],
      "name": "seller",
      "outputs": [
        {
          "internalType": "address payable",
          "name": "",
          "type": "address"
        }
      ],
      "stateMutability": "view",
      "type": "function"
    }
  ],
  "bytecode": "0x60806040523480156200001157600080fd5b5060405162000ed338038062000ed38339818101604052810190620000379190620001f3565b836000806101000a81548173ffffffffffffffffffffffffffffffffffffffff021916908373ffffffffffffffffffffffffffffffffffffffff16021790555082600160006101000a81548173ffffffffffffffffffffffffffffffffffffffff021916908373ffffffffffffffffffffffffffffffffffffffff16021790555081600260006101000a81548173ffffffffffffffffffffffffffffffffffffffff021916908373ffffffffffffffffffffffffffffffffffffffff16021790555080600360006101000a81548173ffffffffffffffffffffffffffffffffffffffff021916908373ffffffffffffffffffffffffffffffffffffffff1602179055505050505062000265565b600080fd5b600073ffffffffffffffffffffffffffffffffffffffff82169050919050565b6000620001768262000149565b9050919050565b620001888162000169565b81146200019457600080fd5b50565b600081519050620001a8816200017d565b92915050565b6000620001bb8262000149565b9050919050565b620001cd81620001ae565b8114620001d957600080fd5b50565b600081519050620001ed81620001c2565b92915050565b6000806000806080858703121562000210576200020f62000144565b5b6000620002208782880162000197565b94505060206200023387828801620001dc565b9350506040620002468782880162000197565b9250506060620002598782880162000197565b91505092959194509250565b610c5e80620002756000396000f3fe6080604052600436106100c25760003560e01c80637b2c22b11161007f578063c78de70911610059578063c78de70914610281578063c9f0ec7e146102ac578063df73f0e6146102c8578063f353576414610305576100c2565b80637b2c22b1146101f05780638123fe4614610219578063bcead63e14610256576100c2565b806308551a53146100c75780630f5debfd146100f257806312065fe01461012f57806328aeda661461015a57806344bfcd8a146101975780634dd4acaf146101b3575b600080fd5b3480156100d357600080fd5b506100dc610330565b6040516100e9919061080c565b60405180910390f35b3480156100fe57600080fd5b5061011960048036038101906101149190610862565b610356565b60405161012691906108aa565b60405180910390f35b34801561013b57600080fd5b50610144610376565b60405161015191906108d4565b60405180910390f35b34801561016657600080fd5b50610181600480360381019061017c9190610862565b61037e565b60405161018e91906108d4565b60405180910390f35b6101b160048036038101906101ac9190610862565b610396565b005b3480156101bf57600080fd5b506101da60048036038101906101d59190610862565b61045c565b6040516101e79190610910565b60405180910390f35b3480156101fc57600080fd5b5061021760048036038101906102129190610957565b61048f565b005b34801561022557600080fd5b50610240600480360381019061023b9190610862565b610550565b60405161024d91906108d4565b60405180910390f35b34801561026257600080fd5b5061026b610568565b6040516102789190610910565b60405180910390f35b34801561028d57600080fd5b5061029661058e565b6040516102a39190610910565b60405180910390f35b6102c660048036038101906102c191906109c3565b6105b2565b005b3480156102d457600080fd5b506102ef60048036038101906102ea9190610862565b610785565b6040516102fc91906108aa565b60405180910390f35b34801561031157600080fd5b5061031a6107a5565b6040516103279190610910565b60405180910390f35b600160009054906101000a900473ffffffffffffffffffffffffffffffffffffffff1681565b60086020528060005260406000206000915054906101000a900460ff1681565b600047905090565b60056020528060005260406000206000915090505481565b806007600082815260200190815260200160002060009054906101000a900473ffffffffffffffffffffffffffffffffffffffff1673ffffffffffffffffffffffffffffffffffffffff163373ffffffffffffffffffffffffffffffffffffffff1614610438576040517f08c379a000000000000000000000000000000000000000000000000000000000815260040161042f90610aad565b60405180910390fd5b600660008381526020019081526020016000205434101561045857600080fd5b5050565b60076020528060005260406000206000915054906101000a900473ffffffffffffffffffffffffffffffffffffffff1681565b81600360009054906101000a900473ffffffffffffffffffffffffffffffffffffffff1673ffffffffffffffffffffffffffffffffffffffff163373ffffffffffffffffffffffffffffffffffffffff1614610520576040517f08c379a000000000000000000000000000000000000000000000000000000000815260040161051790610b3f565b60405180910390fd5b816008600085815260200190815260200160002060006101000a81548160ff021916908315150217905550505050565b60066020528060005260406000206000915090505481565b600260009054906101000a900473ffffffffffffffffffffffffffffffffffffffff1681565b60008054906101000a900473ffffffffffffffffffffffffffffffffffffffff1681565b600160009054906101000a900473ffffffffffffffffffffffffffffffffffffffff1673ffffffffffffffffffffffffffffffffffffffff163373ffffffffffffffffffffffffffffffffffffffff1614610642576040517f08c379a000000000000000000000000000000000000000000000000000000000815260040161063990610bd1565b60405180910390fd5b60008054906101000a900473ffffffffffffffffffffffffffffffffffffffff1673ffffffffffffffffffffffffffffffffffffffff166323b872dd3330876040518463ffffffff1660e01b815260040161069f93929190610bf1565b600060405180830381600087803b1580156106b957600080fd5b505af11580156106cd573d6000803e3d6000fd5b5050505060016004600086815260200190815260200160002060006101000a81548160ff021916908315150217905550816005600086815260200190815260200160002081905550806006600086815260200190815260200160002081905550826007600086815260200190815260200160002060006101000a81548173ffffffffffffffffffffffffffffffffffffffff021916908373ffffffffffffffffffffffffffffffffffffffff16021790555050505050565b60046020528060005260406000206000915054906101000a900460ff1681565b600360009054906101000a900473ffffffffffffffffffffffffffffffffffffffff1681565b600073ffffffffffffffffffffffffffffffffffffffff82169050919050565b60006107f6826107cb565b9050919050565b610806816107eb565b82525050565b600060208201905061082160008301846107fd565b92915050565b600080fd5b6000819050919050565b61083f8161082c565b811461084a57600080fd5b50565b60008135905061085c81610836565b92915050565b60006020828403121561087857610877610827565b5b60006108868482850161084d565b91505092915050565b60008115159050919050565b6108a48161088f565b82525050565b60006020820190506108bf600083018461089b565b92915050565b6108ce8161082c565b82525050565b60006020820190506108e960008301846108c5565b92915050565b60006108fa826107cb565b9050919050565b61090a816108ef565b82525050565b60006020820190506109256000830184610901565b92915050565b6109348161088f565b811461093f57600080fd5b50565b6000813590506109518161092b565b92915050565b6000806040838503121561096e5761096d610827565b5b600061097c8582860161084d565b925050602061098d85828601610942565b9150509250929050565b6109a0816108ef565b81146109ab57600080fd5b50565b6000813590506109bd81610997565b92915050565b600080600080608085870312156109dd576109dc610827565b5b60006109eb8782880161084d565b94505060206109fc878288016109ae565b9350506040610a0d8782880161084d565b9250506060610a1e8782880161084d565b91505092959194509250565b600082825260208201905092915050565b7f4f6e6c792042757965722068617665207065726d697373696f6e7320746f206360008201527f616c6c2074686973206d6574686f640000000000000000000000000000000000602082015250565b6000610a97602f83610a2a565b9150610aa282610a3b565b604082019050919050565b60006020820190508181036000830152610ac681610a8a565b9050919050565b7f4f6e6c7920496e73706563746f722068617665207065726d697373696f6e732060008201527f746f2063616c6c2074686973206d6574686f6400000000000000000000000000602082015250565b6000610b29603383610a2a565b9150610b3482610acd565b604082019050919050565b60006020820190508181036000830152610b5881610b1c565b9050919050565b7f4f6e6c792053656c6c65722068617665207065726d697373696f6e7320746f2060008201527f63616c6c2074686973206d6574686f6400000000000000000000000000000000602082015250565b6000610bbb603083610a2a565b9150610bc682610b5f565b604082019050919050565b60006020820190508181036000830152610bea81610bae565b9050919050565b6000606082019050610c066000830186610901565b610c136020830185610901565b610c2060408301846108c5565b94935050505056fea264697066735822122070716c0b39a2a6ecc8bd76c133c8699988facf2853c0eab739bff86a8338169864736f6c63430008110033",
  "linkReferences": {},
  "deployedLinkReferences": {}
}