{
  "_format": "hh-sol-artifact-1",
  "contractName": "Escrow",
  "sourceName": "contracts/Escrow.sol",
  "abi": [
    {
      "inputs": [
        {
          "internalType": "address",
          "name": "_nft_address",
          "type": "address"
        },
        {
          "internalType": "address payable",
          "name": "_seller",
          "type": "address"
        },
        {
          "internalType": "address",
          "name": "_lender",
          "type": "address"
        },
        {
          "internalType": "address",
          "name": "_inspector",
          "type": "address"
        }
      ],
      "stateMutability": "nonpayable",
      "type": "constructor"
    },
    {
      "inputs": [],
      "name": "Inspector",
      "outputs": [
        {
          "internalType": "address",
          "name": "",
          "type": "address"
        }
      ],
      "stateMutability": "view",
      "type": "function"
    },
    {
      "inputs": [
        {
          "internalType": "uint256",
          "name": "",
          "type": "uint256"
        },
        {
          "internalType": "address",
          "name": "",
          "type": "address"
        }
      ],
      "name": "approval",
      "outputs": [
        {
          "internalType": "bool",
          "name": "",
          "type": "bool"
        }
      ],
      "stateMutability": "view",
      "type": "function"
    },
    {
      "inputs": [
        {
          "internalType": "uint256",
          "name": "",
          "type": "uint256"
        }
      ],
      "name": "buyer",
      "outputs": [
        {
          "internalType": "address",
          "name": "",
          "type": "address"
        }
      ],
      "stateMutability": "view",
      "type": "function"
    },
    {
      "inputs": [
        {
          "internalType": "uint256",
          "name": "_nft_id",
          "type": "uint256"
        }
      ],
      "name": "deposite_earnest",
      "outputs": [],
      "stateMutability": "payable",
      "type": "function"
    },
    {
      "inputs": [
        {
          "internalType": "uint256",
          "name": "",
          "type": "uint256"
        }
      ],
      "name": "escrow_amount",
      "outputs": [
        {
          "internalType": "uint256",
          "name": "",
          "type": "uint256"
        }
      ],
      "stateMutability": "view",
      "type": "function"
    },
    {
      "inputs": [],
      "name": "getBalance",
      "outputs": [
        {
          "internalType": "uint256",
          "name": "",
          "type": "uint256"
        }
      ],
      "stateMutability": "view",
      "type": "function"
    },
    {
      "inputs": [
        {
          "internalType": "uint256",
          "name": "",
          "type": "uint256"
        }
      ],
      "name": "inpection_check",
      "outputs": [
        {
          "internalType": "bool",
          "name": "",
          "type": "bool"
        }
      ],
      "stateMutability": "view",
      "type": "function"
    },
    {
      "inputs": [
        {
          "internalType": "uint256",
          "name": "_nft_id",
          "type": "uint256"
        },
        {
          "internalType": "bool",
          "name": "_result",
          "type": "bool"
        }
      ],
      "name": "inpection_test",
      "outputs": [],
      "stateMutability": "nonpayable",
      "type": "function"
    },
    {
      "inputs": [
        {
          "internalType": "uint256",
          "name": "",
          "type": "uint256"
        }
      ],
      "name": "is_listed_check",
      "outputs": [
        {
          "internalType": "bool",
          "name": "",
          "type": "bool"
        }
      ],
      "stateMutability": "view",
      "type": "function"
    },
    {
      "inputs": [],
      "name": "lender",
      "outputs": [
        {
          "internalType": "address",
          "name": "",
          "type": "address"
        }
      ],
      "stateMutability": "view",
      "type": "function"
    },
    {
      "inputs": [
        {
          "internalType": "uint256",
          "name": "_nftID",
          "type": "uint256"
        },
        {
          "internalType": "address",
          "name": "_buyer",
          "type": "address"
        },
        {
          "internalType": "uint256",
          "name": "_purchase_price",
          "type": "uint256"
        },
        {
          "internalType": "uint256",
          "name": "_escrow_amount",
          "type": "uint256"
        }
      ],
      "name": "list",
      "outputs": [],
      "stateMutability": "payable",
      "type": "function"
    },
    {
      "inputs": [],
      "name": "nft_address",
      "outputs": [
        {
          "internalType": "address",
          "name": "",
          "type": "address"
        }
      ],
      "stateMutability": "view",
      "type": "function"
    },
    {
      "inputs": [
        {
          "internalType": "uint256",
          "name": "",
          "type": "uint256"
        }
      ],
      "name": "purchase_price",
      "outputs": [
        {
          "internalType": "uint256",
          "name": "",
          "type": "uint256"
        }
      ],
      "stateMutability": "view",
      "type": "function"
    },
    {
      "inputs": [
        {
          "internalType": "uint256",
          "name": "_nft_id",
          "type": "uint256"
        }
      ],
      "name": "sell_approval",
      "outputs": [],
      "stateMutability": "nonpayable",
      "type": "function"
    },
    {
      "inputs": [],
      "name": "seller",
      "outputs": [
        {
          "internalType": "address payable",
          "name": "",
          "type": "address"
        }
      ],
      "stateMutability": "view",
      "type": "function"
    }
  ],
  "bytecode": "0x60806040523480156200001157600080fd5b506040516200103a3803806200103a8339818101604052810190620000379190620001f3565b836000806101000a81548173ffffffffffffffffffffffffffffffffffffffff021916908373ffffffffffffffffffffffffffffffffffffffff16021790555082600160006101000a81548173ffffffffffffffffffffffffffffffffffffffff021916908373ffffffffffffffffffffffffffffffffffffffff16021790555081600260006101000a81548173ffffffffffffffffffffffffffffffffffffffff021916908373ffffffffffffffffffffffffffffffffffffffff16021790555080600360006101000a81548173ffffffffffffffffffffffffffffffffffffffff021916908373ffffffffffffffffffffffffffffffffffffffff1602179055505050505062000265565b600080fd5b600073ffffffffffffffffffffffffffffffffffffffff82169050919050565b6000620001768262000149565b9050919050565b620001888162000169565b81146200019457600080fd5b50565b600081519050620001a8816200017d565b92915050565b6000620001bb8262000149565b9050919050565b620001cd81620001ae565b8114620001d957600080fd5b50565b600081519050620001ed81620001c2565b92915050565b6000806000806080858703121562000210576200020f62000144565b5b6000620002208782880162000197565b94505060206200023387828801620001dc565b9350506040620002468782880162000197565b9250506060620002598782880162000197565b91505092959194509250565b610dc580620002756000396000f3fe6080604052600436106100e85760003560e01c80637b2c22b11161008a578063c78de70911610059578063c78de7091461030d578063c9f0ec7e14610338578063df73f0e614610354578063f353576414610391576100e8565b80637b2c22b11461023f5780638123fe4614610268578063b848de35146102a5578063bcead63e146102e2576100e8565b806312065fe0116100c657806312065fe01461017e57806328aeda66146101a957806344bfcd8a146101e65780634dd4acaf14610202576100e8565b8063072a311e146100ed57806308551a53146101165780630f5debfd14610141575b600080fd5b3480156100f957600080fd5b50610114600480360381019061010f919061092d565b6103bc565b005b34801561012257600080fd5b5061012b610428565b604051610138919061099b565b60405180910390f35b34801561014d57600080fd5b506101686004803603810190610163919061092d565b61044e565b60405161017591906109d1565b60405180910390f35b34801561018a57600080fd5b5061019361046e565b6040516101a091906109fb565b60405180910390f35b3480156101b557600080fd5b506101d060048036038101906101cb919061092d565b610476565b6040516101dd91906109fb565b60405180910390f35b61020060048036038101906101fb919061092d565b61048e565b005b34801561020e57600080fd5b506102296004803603810190610224919061092d565b610554565b6040516102369190610a37565b60405180910390f35b34801561024b57600080fd5b5061026660048036038101906102619190610a7e565b610587565b005b34801561027457600080fd5b5061028f600480360381019061028a919061092d565b610648565b60405161029c91906109fb565b60405180910390f35b3480156102b157600080fd5b506102cc60048036038101906102c79190610aea565b610660565b6040516102d991906109d1565b60405180910390f35b3480156102ee57600080fd5b506102f761068f565b6040516103049190610a37565b60405180910390f35b34801561031957600080fd5b506103226106b5565b60405161032f9190610a37565b60405180910390f35b610352600480360381019061034d9190610b2a565b6106d9565b005b34801561036057600080fd5b5061037b6004803603810190610376919061092d565b6108ac565b60405161038891906109d1565b60405180910390f35b34801561039d57600080fd5b506103a66108cc565b6040516103b39190610a37565b60405180910390f35b60016009600083815260200190815260200160002060003373ffffffffffffffffffffffffffffffffffffffff1673ffffffffffffffffffffffffffffffffffffffff16815260200190815260200160002060006101000a81548160ff02191690831515021790555050565b600160009054906101000a900473ffffffffffffffffffffffffffffffffffffffff1681565b60086020528060005260406000206000915054906101000a900460ff1681565b600047905090565b60056020528060005260406000206000915090505481565b806007600082815260200190815260200160002060009054906101000a900473ffffffffffffffffffffffffffffffffffffffff1673ffffffffffffffffffffffffffffffffffffffff163373ffffffffffffffffffffffffffffffffffffffff1614610530576040517f08c379a000000000000000000000000000000000000000000000000000000000815260040161052790610c14565b60405180910390fd5b600660008381526020019081526020016000205434101561055057600080fd5b5050565b60076020528060005260406000206000915054906101000a900473ffffffffffffffffffffffffffffffffffffffff1681565b81600360009054906101000a900473ffffffffffffffffffffffffffffffffffffffff1673ffffffffffffffffffffffffffffffffffffffff163373ffffffffffffffffffffffffffffffffffffffff1614610618576040517f08c379a000000000000000000000000000000000000000000000000000000000815260040161060f90610ca6565b60405180910390fd5b816008600085815260200190815260200160002060006101000a81548160ff021916908315150217905550505050565b60066020528060005260406000206000915090505481565b60096020528160005260406000206020528060005260406000206000915091509054906101000a900460ff1681565b600260009054906101000a900473ffffffffffffffffffffffffffffffffffffffff1681565b60008054906101000a900473ffffffffffffffffffffffffffffffffffffffff1681565b600160009054906101000a900473ffffffffffffffffffffffffffffffffffffffff1673ffffffffffffffffffffffffffffffffffffffff163373ffffffffffffffffffffffffffffffffffffffff1614610769576040517f08c379a000000000000000000000000000000000000000000000000000000000815260040161076090610d38565b60405180910390fd5b60008054906101000a900473ffffffffffffffffffffffffffffffffffffffff1673ffffffffffffffffffffffffffffffffffffffff166323b872dd3330876040518463ffffffff1660e01b81526004016107c693929190610d58565b600060405180830381600087803b1580156107e057600080fd5b505af11580156107f4573d6000803e3d6000fd5b5050505060016004600086815260200190815260200160002060006101000a81548160ff021916908315150217905550816005600086815260200190815260200160002081905550806006600086815260200190815260200160002081905550826007600086815260200190815260200160002060006101000a81548173ffffffffffffffffffffffffffffffffffffffff021916908373ffffffffffffffffffffffffffffffffffffffff16021790555050505050565b60046020528060005260406000206000915054906101000a900460ff1681565b600360009054906101000a900473ffffffffffffffffffffffffffffffffffffffff1681565b600080fd5b6000819050919050565b61090a816108f7565b811461091557600080fd5b50565b60008135905061092781610901565b92915050565b600060208284031215610943576109426108f2565b5b600061095184828501610918565b91505092915050565b600073ffffffffffffffffffffffffffffffffffffffff82169050919050565b60006109858261095a565b9050919050565b6109958161097a565b82525050565b60006020820190506109b0600083018461098c565b92915050565b60008115159050919050565b6109cb816109b6565b82525050565b60006020820190506109e660008301846109c2565b92915050565b6109f5816108f7565b82525050565b6000602082019050610a1060008301846109ec565b92915050565b6000610a218261095a565b9050919050565b610a3181610a16565b82525050565b6000602082019050610a4c6000830184610a28565b92915050565b610a5b816109b6565b8114610a6657600080fd5b50565b600081359050610a7881610a52565b92915050565b60008060408385031215610a9557610a946108f2565b5b6000610aa385828601610918565b9250506020610ab485828601610a69565b9150509250929050565b610ac781610a16565b8114610ad257600080fd5b50565b600081359050610ae481610abe565b92915050565b60008060408385031215610b0157610b006108f2565b5b6000610b0f85828601610918565b9250506020610b2085828601610ad5565b9150509250929050565b60008060008060808587031215610b4457610b436108f2565b5b6000610b5287828801610918565b9450506020610b6387828801610ad5565b9350506040610b7487828801610918565b9250506060610b8587828801610918565b91505092959194509250565b600082825260208201905092915050565b7f4f6e6c792042757965722068617665207065726d697373696f6e7320746f206360008201527f616c6c2074686973206d6574686f640000000000000000000000000000000000602082015250565b6000610bfe602f83610b91565b9150610c0982610ba2565b604082019050919050565b60006020820190508181036000830152610c2d81610bf1565b9050919050565b7f4f6e6c7920496e73706563746f722068617665207065726d697373696f6e732060008201527f746f2063616c6c2074686973206d6574686f6400000000000000000000000000602082015250565b6000610c90603383610b91565b9150610c9b82610c34565b604082019050919050565b60006020820190508181036000830152610cbf81610c83565b9050919050565b7f4f6e6c792053656c6c65722068617665207065726d697373696f6e7320746f2060008201527f63616c6c2074686973206d6574686f6400000000000000000000000000000000602082015250565b6000610d22603083610b91565b9150610d2d82610cc6565b604082019050919050565b60006020820190508181036000830152610d5181610d15565b9050919050565b6000606082019050610d6d6000830186610a28565b610d7a6020830185610a28565b610d8760408301846109ec565b94935050505056fea264697066735822122014aa9245abaf4065167b051356c1e700ed1f6949f7d86cbbd800d45f9d1601bb64736f6c63430008110033",
  "linkReferences": {},
  "deployedLinkReferences": {}
}