{
  "_format": "hh-sol-artifact-1",
  "contractName": "Escrow",
  "sourceName": "contracts/Escrow.sol",
  "abi": [
    {
      "inputs": [
        {
          "internalType": "address",
          "name": "_nft_address",
          "type": "address"
        },
        {
          "internalType": "address payable",
          "name": "_seller",
          "type": "address"
        },
        {
          "internalType": "address",
          "name": "_lender",
          "type": "address"
        },
        {
          "internalType": "address",
          "name": "_inspector",
          "type": "address"
        }
      ],
      "stateMutability": "nonpayable",
      "type": "constructor"
    },
    {
      "inputs": [],
      "name": "Inspector",
      "outputs": [
        {
          "internalType": "address",
          "name": "",
          "type": "address"
        }
      ],
      "stateMutability": "view",
      "type": "function"
    },
    {
      "inputs": [
        {
          "internalType": "uint256",
          "name": "",
          "type": "uint256"
        },
        {
          "internalType": "address",
          "name": "",
          "type": "address"
        }
      ],
      "name": "approval",
      "outputs": [
        {
          "internalType": "bool",
          "name": "",
          "type": "bool"
        }
      ],
      "stateMutability": "view",
      "type": "function"
    },
    {
      "inputs": [
        {
          "internalType": "uint256",
          "name": "",
          "type": "uint256"
        }
      ],
      "name": "buyer",
      "outputs": [
        {
          "internalType": "address",
          "name": "",
          "type": "address"
        }
      ],
      "stateMutability": "view",
      "type": "function"
    },
    {
      "inputs": [
        {
          "internalType": "uint256",
          "name": "_nft_id",
          "type": "uint256"
        }
      ],
      "name": "deposite_earnest",
      "outputs": [],
      "stateMutability": "payable",
      "type": "function"
    },
    {
      "inputs": [
        {
          "internalType": "uint256",
          "name": "",
          "type": "uint256"
        }
      ],
      "name": "escrow_amount",
      "outputs": [
        {
          "internalType": "uint256",
          "name": "",
          "type": "uint256"
        }
      ],
      "stateMutability": "view",
      "type": "function"
    },
    {
      "inputs": [
        {
          "internalType": "uint256",
          "name": "_nft_id",
          "type": "uint256"
        }
      ],
      "name": "finalize_sell",
      "outputs": [],
      "stateMutability": "nonpayable",
      "type": "function"
    },
    {
      "inputs": [],
      "name": "getBalance",
      "outputs": [
        {
          "internalType": "uint256",
          "name": "",
          "type": "uint256"
        }
      ],
      "stateMutability": "view",
      "type": "function"
    },
    {
      "inputs": [
        {
          "internalType": "uint256",
          "name": "",
          "type": "uint256"
        }
      ],
      "name": "inpection_check",
      "outputs": [
        {
          "internalType": "bool",
          "name": "",
          "type": "bool"
        }
      ],
      "stateMutability": "view",
      "type": "function"
    },
    {
      "inputs": [
        {
          "internalType": "uint256",
          "name": "_nft_id",
          "type": "uint256"
        },
        {
          "internalType": "bool",
          "name": "_result",
          "type": "bool"
        }
      ],
      "name": "inpection_test",
      "outputs": [],
      "stateMutability": "nonpayable",
      "type": "function"
    },
    {
      "inputs": [
        {
          "internalType": "uint256",
          "name": "",
          "type": "uint256"
        }
      ],
      "name": "is_listed_check",
      "outputs": [
        {
          "internalType": "bool",
          "name": "",
          "type": "bool"
        }
      ],
      "stateMutability": "view",
      "type": "function"
    },
    {
      "inputs": [],
      "name": "lender",
      "outputs": [
        {
          "internalType": "address",
          "name": "",
          "type": "address"
        }
      ],
      "stateMutability": "view",
      "type": "function"
    },
    {
      "inputs": [
        {
          "internalType": "uint256",
          "name": "_nftID",
          "type": "uint256"
        },
        {
          "internalType": "address",
          "name": "_buyer",
          "type": "address"
        },
        {
          "internalType": "uint256",
          "name": "_purchase_price",
          "type": "uint256"
        },
        {
          "internalType": "uint256",
          "name": "_escrow_amount",
          "type": "uint256"
        }
      ],
      "name": "list",
      "outputs": [],
      "stateMutability": "payable",
      "type": "function"
    },
    {
      "inputs": [],
      "name": "nft_address",
      "outputs": [
        {
          "internalType": "address",
          "name": "",
          "type": "address"
        }
      ],
      "stateMutability": "view",
      "type": "function"
    },
    {
      "inputs": [
        {
          "internalType": "uint256",
          "name": "",
          "type": "uint256"
        }
      ],
      "name": "purchase_price",
      "outputs": [
        {
          "internalType": "uint256",
          "name": "",
          "type": "uint256"
        }
      ],
      "stateMutability": "view",
      "type": "function"
    },
    {
      "inputs": [],
      "name": "receive",
      "outputs": [],
      "stateMutability": "payable",
      "type": "function"
    },
    {
      "inputs": [
        {
          "internalType": "uint256",
          "name": "_nft_id",
          "type": "uint256"
        }
      ],
      "name": "sell_approval",
      "outputs": [],
      "stateMutability": "nonpayable",
      "type": "function"
    },
    {
      "inputs": [],
      "name": "seller",
      "outputs": [
        {
          "internalType": "address payable",
          "name": "",
          "type": "address"
        }
      ],
      "stateMutability": "view",
      "type": "function"
    }
  ],
  "bytecode": "0x60806040523480156200001157600080fd5b506040516200127e3803806200127e8339818101604052810190620000379190620001f3565b836000806101000a81548173ffffffffffffffffffffffffffffffffffffffff021916908373ffffffffffffffffffffffffffffffffffffffff16021790555082600160006101000a81548173ffffffffffffffffffffffffffffffffffffffff021916908373ffffffffffffffffffffffffffffffffffffffff16021790555081600260006101000a81548173ffffffffffffffffffffffffffffffffffffffff021916908373ffffffffffffffffffffffffffffffffffffffff16021790555080600360006101000a81548173ffffffffffffffffffffffffffffffffffffffff021916908373ffffffffffffffffffffffffffffffffffffffff1602179055505050505062000265565b600080fd5b600073ffffffffffffffffffffffffffffffffffffffff82169050919050565b6000620001768262000149565b9050919050565b620001888162000169565b81146200019457600080fd5b50565b600081519050620001a8816200017d565b92915050565b6000620001bb8262000149565b9050919050565b620001cd81620001ae565b8114620001d957600080fd5b50565b600081519050620001ed81620001c2565b92915050565b6000806000806080858703121562000210576200020f62000144565b5b6000620002208782880162000197565b94505060206200023387828801620001dc565b9350506040620002468782880162000197565b9250506060620002598782880162000197565b91505092959194509250565b61100980620002756000396000f3fe6080604052600436106100fe5760003560e01c80638123fe4611610095578063c78de70911610064578063c78de7091461032d578063c9f0ec7e14610358578063d27a75ea14610374578063df73f0e61461039d578063f3535764146103da576100fe565b80638123fe461461027e578063a3e76c0f146102bb578063b848de35146102c5578063bcead63e14610302576100fe565b806328aeda66116100d157806328aeda66146101bf57806344bfcd8a146101fc5780634dd4acaf146102185780637b2c22b114610255576100fe565b8063072a311e1461010357806308551a531461012c5780630f5debfd1461015757806312065fe014610194575b600080fd5b34801561010f57600080fd5b5061012a60048036038101906101259190610b71565b610405565b005b34801561013857600080fd5b50610141610471565b60405161014e9190610bdf565b60405180910390f35b34801561016357600080fd5b5061017e60048036038101906101799190610b71565b610497565b60405161018b9190610c15565b60405180910390f35b3480156101a057600080fd5b506101a96104b7565b6040516101b69190610c3f565b60405180910390f35b3480156101cb57600080fd5b506101e660048036038101906101e19190610b71565b6104bf565b6040516101f39190610c3f565b60405180910390f35b61021660048036038101906102119190610b71565b6104d7565b005b34801561022457600080fd5b5061023f600480360381019061023a9190610b71565b61059d565b60405161024c9190610c7b565b60405180910390f35b34801561026157600080fd5b5061027c60048036038101906102779190610cc2565b6105d0565b005b34801561028a57600080fd5b506102a560048036038101906102a09190610b71565b610691565b6040516102b29190610c3f565b60405180910390f35b6102c36106a9565b005b3480156102d157600080fd5b506102ec60048036038101906102e79190610d2e565b6106ab565b6040516102f99190610c15565b60405180910390f35b34801561030e57600080fd5b506103176106da565b6040516103249190610c7b565b60405180910390f35b34801561033957600080fd5b50610342610700565b60405161034f9190610c7b565b60405180910390f35b610372600480360381019061036d9190610d6e565b610724565b005b34801561038057600080fd5b5061039b60048036038101906103969190610b71565b6108f7565b005b3480156103a957600080fd5b506103c460048036038101906103bf9190610b71565b610af0565b6040516103d19190610c15565b60405180910390f35b3480156103e657600080fd5b506103ef610b10565b6040516103fc9190610c7b565b60405180910390f35b60016009600083815260200190815260200160002060003373ffffffffffffffffffffffffffffffffffffffff1673ffffffffffffffffffffffffffffffffffffffff16815260200190815260200160002060006101000a81548160ff02191690831515021790555050565b600160009054906101000a900473ffffffffffffffffffffffffffffffffffffffff1681565b60086020528060005260406000206000915054906101000a900460ff1681565b600047905090565b60056020528060005260406000206000915090505481565b806007600082815260200190815260200160002060009054906101000a900473ffffffffffffffffffffffffffffffffffffffff1673ffffffffffffffffffffffffffffffffffffffff163373ffffffffffffffffffffffffffffffffffffffff1614610579576040517f08c379a000000000000000000000000000000000000000000000000000000000815260040161057090610e58565b60405180910390fd5b600660008381526020019081526020016000205434101561059957600080fd5b5050565b60076020528060005260406000206000915054906101000a900473ffffffffffffffffffffffffffffffffffffffff1681565b81600360009054906101000a900473ffffffffffffffffffffffffffffffffffffffff1673ffffffffffffffffffffffffffffffffffffffff163373ffffffffffffffffffffffffffffffffffffffff1614610661576040517f08c379a000000000000000000000000000000000000000000000000000000000815260040161065890610eea565b60405180910390fd5b816008600085815260200190815260200160002060006101000a81548160ff021916908315150217905550505050565b60066020528060005260406000206000915090505481565b565b60096020528160005260406000206020528060005260406000206000915091509054906101000a900460ff1681565b600260009054906101000a900473ffffffffffffffffffffffffffffffffffffffff1681565b60008054906101000a900473ffffffffffffffffffffffffffffffffffffffff1681565b600160009054906101000a900473ffffffffffffffffffffffffffffffffffffffff1673ffffffffffffffffffffffffffffffffffffffff163373ffffffffffffffffffffffffffffffffffffffff16146107b4576040517f08c379a00000000000000000000000000000000000000000000000000000000081526004016107ab90610f7c565b60405180910390fd5b60008054906101000a900473ffffffffffffffffffffffffffffffffffffffff1673ffffffffffffffffffffffffffffffffffffffff166323b872dd3330876040518463ffffffff1660e01b815260040161081193929190610f9c565b600060405180830381600087803b15801561082b57600080fd5b505af115801561083f573d6000803e3d6000fd5b5050505060016004600086815260200190815260200160002060006101000a81548160ff021916908315150217905550816005600086815260200190815260200160002081905550806006600086815260200190815260200160002081905550826007600086815260200190815260200160002060006101000a81548173ffffffffffffffffffffffffffffffffffffffff021916908373ffffffffffffffffffffffffffffffffffffffff16021790555050505050565b6008600082815260200190815260200160002060009054906101000a900460ff1661092157600080fd5b6009600082815260200190815260200160002060006007600084815260200190815260200160002060009054906101000a900473ffffffffffffffffffffffffffffffffffffffff1673ffffffffffffffffffffffffffffffffffffffff1673ffffffffffffffffffffffffffffffffffffffff16815260200190815260200160002060009054906101000a900460ff166109bb57600080fd5b600960008281526020019081526020016000206000600160009054906101000a900473ffffffffffffffffffffffffffffffffffffffff1673ffffffffffffffffffffffffffffffffffffffff1673ffffffffffffffffffffffffffffffffffffffff16815260200190815260200160002060009054906101000a900460ff16610a4457600080fd5b600960008281526020019081526020016000206000600260009054906101000a900473ffffffffffffffffffffffffffffffffffffffff1673ffffffffffffffffffffffffffffffffffffffff1673ffffffffffffffffffffffffffffffffffffffff16815260200190815260200160002060009054906101000a900460ff16610acd57600080fd5b6006600082815260200190815260200160002054471015610aed57600080fd5b50565b60046020528060005260406000206000915054906101000a900460ff1681565b600360009054906101000a900473ffffffffffffffffffffffffffffffffffffffff1681565b600080fd5b6000819050919050565b610b4e81610b3b565b8114610b5957600080fd5b50565b600081359050610b6b81610b45565b92915050565b600060208284031215610b8757610b86610b36565b5b6000610b9584828501610b5c565b91505092915050565b600073ffffffffffffffffffffffffffffffffffffffff82169050919050565b6000610bc982610b9e565b9050919050565b610bd981610bbe565b82525050565b6000602082019050610bf46000830184610bd0565b92915050565b60008115159050919050565b610c0f81610bfa565b82525050565b6000602082019050610c2a6000830184610c06565b92915050565b610c3981610b3b565b82525050565b6000602082019050610c546000830184610c30565b92915050565b6000610c6582610b9e565b9050919050565b610c7581610c5a565b82525050565b6000602082019050610c906000830184610c6c565b92915050565b610c9f81610bfa565b8114610caa57600080fd5b50565b600081359050610cbc81610c96565b92915050565b60008060408385031215610cd957610cd8610b36565b5b6000610ce785828601610b5c565b9250506020610cf885828601610cad565b9150509250929050565b610d0b81610c5a565b8114610d1657600080fd5b50565b600081359050610d2881610d02565b92915050565b60008060408385031215610d4557610d44610b36565b5b6000610d5385828601610b5c565b9250506020610d6485828601610d19565b9150509250929050565b60008060008060808587031215610d8857610d87610b36565b5b6000610d9687828801610b5c565b9450506020610da787828801610d19565b9350506040610db887828801610b5c565b9250506060610dc987828801610b5c565b91505092959194509250565b600082825260208201905092915050565b7f4f6e6c792042757965722068617665207065726d697373696f6e7320746f206360008201527f616c6c2074686973206d6574686f640000000000000000000000000000000000602082015250565b6000610e42602f83610dd5565b9150610e4d82610de6565b604082019050919050565b60006020820190508181036000830152610e7181610e35565b9050919050565b7f4f6e6c7920496e73706563746f722068617665207065726d697373696f6e732060008201527f746f2063616c6c2074686973206d6574686f6400000000000000000000000000602082015250565b6000610ed4603383610dd5565b9150610edf82610e78565b604082019050919050565b60006020820190508181036000830152610f0381610ec7565b9050919050565b7f4f6e6c792053656c6c65722068617665207065726d697373696f6e7320746f2060008201527f63616c6c2074686973206d6574686f6400000000000000000000000000000000602082015250565b6000610f66603083610dd5565b9150610f7182610f0a565b604082019050919050565b60006020820190508181036000830152610f9581610f59565b9050919050565b6000606082019050610fb16000830186610c6c565b610fbe6020830185610c6c565b610fcb6040830184610c30565b94935050505056fea26469706673582212209286d329d76e9e55fa9b9ed8a68beceb967b3d25485c5aa7fbb0c3162b91eaf164736f6c63430008110033",
  "linkReferences": {},
  "deployedLinkReferences": {}
}